{"abi":[{"type":"function","name":"decimalInput","inputs":[{"name":"userInput","type":"uint256","internalType":"uint256"}],"outputs":[{"name":"","type":"string","internalType":"string"}],"stateMutability":"pure"}],"bytecode":{"object":"0x608060405234801561001057600080fd5b50610370806100206000396000f3fe608060405234801561001057600080fd5b506004361061002b5760003560e01c8063d3b3beaa14610030575b600080fd5b61004361003e36600461020d565b610059565b6040516100509190610226565b60405180910390f35b60606000806100666101ed565b60005b6100746002876102a1565b156100c3576100846002876102a1565b93506100916002876102b5565b925082828261010081106100a7576100a76102c9565b60200201529294508492806100bb816102df565b915050610069565b6100ce6002876102b5565b925082828261010081106100e4576100e46102c9565b602002015260006100f68260016102f8565b67ffffffffffffffff81111561010e5761010e610311565b6040519080825280601f01601f191660200182016040528015610138576020820181803683370190505b50905060005b6101498360016102f8565b8110156101e2578361015b8285610327565b610100811061016c5761016c6102c9565b60200201516001036101ab57603160f81b82828151811061018f5761018f6102c9565b60200101906001600160f81b031916908160001a9053506101da565b600360fc1b8282815181106101c2576101c26102c9565b60200101906001600160f81b031916908160001a9053505b60010161013e565b509695505050505050565b604051806120000160405280610100906020820280368337509192915050565b60006020828403121561021f57600080fd5b5035919050565b60006020808352835180602085015260005b8181101561025457858101830151858201604001528201610238565b506000604082860101526040601f19601f8301168501019250505092915050565b634e487b7160e01b600052601260045260246000fd5b634e487b7160e01b600052601160045260246000fd5b6000826102b0576102b0610275565b500490565b6000826102c4576102c4610275565b500690565b634e487b7160e01b600052603260045260246000fd5b6000600182016102f1576102f161028b565b5060010190565b8082018082111561030b5761030b61028b565b92915050565b634e487b7160e01b600052604160045260246000fd5b8181038181111561030b5761030b61028b56fea26469706673582212208ce0528b567624a3f33489db7ae25a573e4cf1c3094620b35db6bded5ef290c464736f6c63430008170033","linkReferences":{}},"methodIdentifiers":{"decimalInput(uint256)":"d3b3beaa"},"id":0}