{"abi":[{"type":"fallback","stateMutability":"payable"},{"type":"function","name":"getFallbackState","inputs":[],"outputs":[{"name":"","type":"bool","internalType":"bool"}],"stateMutability":"view"}],"bytecode":{"object":"0x60806040525f805460ff191690553480156017575f5ffd5b5060868060235f395ff3fe608060405260043610601b575f3560e01c80634831351414602c575b5f805460ff19166001908117909155005b3480156036575f5ffd5b505f5460ff16604051901515815260200160405180910390f3fea2646970667358221220358b7232b2ba3a4d7c947e93be5e157bd4b246a9179495824e15916f5889faf364736f6c634300081c0033","linkReferences":{}},"methodIdentifiers":{"getFallbackState()":"48313514"},"id":17}