{"abi":[{"type":"fallback","stateMutability":"payable"},{"type":"function","name":"getFallbackState","inputs":[],"outputs":[{"name":"","type":"bool","internalType":"bool"}],"stateMutability":"view"}],"bytecode":{"object":"0x60806040526000805460ff19169055348015601957600080fd5b50608a806100286000396000f3fe608060405260043610601c5760003560e01c80634831351414602e575b6000805460ff19166001908117909155005b348015603957600080fd5b5060005460ff16604051901515815260200160405180910390f3fea2646970667358221220c99b3b1b598ed73ab70e67d25e6cf75518ecdcd2e216d08fb0f0ac700f764be564736f6c63430008170033","linkReferences":{}},"methodIdentifiers":{"getFallbackState()":"48313514"},"id":17}