{"abi":[{"type":"receive","stateMutability":"payable"},{"type":"function","name":"transferMoney","inputs":[{"name":"to","type":"address","internalType":"address"},{"name":"amount","type":"uint256","internalType":"uint256"}],"outputs":[{"name":"","type":"bool","internalType":"bool"}],"stateMutability":"nonpayable"}],"bytecode":{"object":"0x608060405234801561001057600080fd5b5061012f806100206000396000f3fe60806040526004361060205760003560e01c8063fee666ad14602b57600080fd5b36602657005b600080fd5b348015603657600080fd5b506046604236600460c3565b605a565b604051901515815260200160405180910390f35b600081471015606857600080fd5b6000836001600160a01b03168360405160006040518083038185875af1925050503d806000811460b3576040519150601f19603f3d011682016040523d82523d6000602084013e60b8565b606091505b509095945050505050565b6000806040838503121560d557600080fd5b82356001600160a01b038116811460eb57600080fd5b94602093909301359350505056fea264697066735822122036d1b65064a5160cf2cb57e8c0e5b2882937e3615b5d56025deb30211c25eb8164736f6c63430008170033","linkReferences":{}},"methodIdentifiers":{"transferMoney(address,uint256)":"fee666ad"},"id":17}