{"abi":[{"type":"receive","stateMutability":"payable"},{"type":"function","name":"transferMoney","inputs":[{"name":"to","type":"address","internalType":"address"},{"name":"amount","type":"uint256","internalType":"uint256"}],"outputs":[{"name":"","type":"bool","internalType":"bool"}],"stateMutability":"nonpayable"}],"bytecode":{"object":"0x6080604052348015600e575f5ffd5b506101228061001c5f395ff3fe608060405260043610601e575f3560e01c8063fee666ad146028575f5ffd5b36602457005b5f5ffd5b3480156032575f5ffd5b506042603e36600460b9565b6056565b604051901515815260200160405180910390f35b5f814710156062575f5ffd5b5f836001600160a01b0316836040515f6040518083038185875af1925050503d805f811460a9576040519150601f19603f3d011682016040523d82523d5f602084013e60ae565b606091505b509095945050505050565b5f5f6040838503121560c9575f5ffd5b82356001600160a01b038116811460de575f5ffd5b94602093909301359350505056fea264697066735822122068d9dece5d69e92d2db58585bd45ec9071e21cac543369da41c1dea5857edfa864736f6c634300081c0033","linkReferences":{}},"methodIdentifiers":{"transferMoney(address,uint256)":"fee666ad"},"id":17}